:020000040000fa
:10000000f0ff0320892000000b2900003b2c00009a
:10001000e72c0000612d0000632d000000000000af
:10002000000000000000000000000000df270000ca
:10003000832c000000000000df270000df27000005
:10004000df270000df270000df270000df27000098
:10005000df270000df270000df270000df27000088
:10006000df270000df270000df270000012a000053
:10007000f52a0000152b0000df270000df27000015
:10008000df270000df270000df270000df27000058
:10009000df270000df270000df270000df27000048
:1000a000df270000df270000df270000df27000038
:1000b000df270000df270000df270000332d0000ce
:1000c000df270000df270000df270000df27000018
:1000d000df270000df270000df270000df27000008
:1000e000df270000df270000000000000000000004
:1000f00000000000df270000df270000df270000ee
:10010000df270000df270000df270000df270000d7
:10011000df270000df270000df270000df270000c7
:10012000df270000df270000df270000df270000b7
:10013000df270000df270000df270000df270000a7
:10014000df270000df270000df270000df27000097
:10015000df270000df270000b90e0000b90e000005
:10016000b90e0000b90e0000df270000df270000f5
:10017000df270000df270000df270000df27000067
:10018000df270000df270000df270000df27000057
:10019000250c0000df270000df270000df2700001c
:1001a000df270000df270000df270000df27000037
:1001b000df270000df270000df270000df27000027
:1001c000df270000df270000df270000df27000017
:1001d000df270000df270000df270000df27000007
:1001e000df270000df270000df270000df270000f7
:1001f000df270000df270000df270000df270000e7
:10020000df270000df270000df270000df270000d6
:10021000df270000df270000df270000df270000c6
:10022000df270000df270000df270000df270000b6
:10023000df270000df270000df270000df270000a6
:10024000df270000df270000df270000df27000096
:10025000df270000df270000df270000df27000086
:04026000df27000094
:020000040000fa
:10026400f8b500bff8bc08bc9e46704705280000de
:10027400f8b500bff8bc08bc9e467047e1270000f3
:020000040000fa
:08028400e40600000100000087
:020000040000fa
:10028c002de9f04fadf29c6d0df21c64ad4d0fcd10
:10029c000fc495e8030084e80300002002f0c0fbc3
:1002ac000023039302930193022200920df21c622d
:1002bc001e21084601f024ff012800f0bb8100221a
:1002cc00a149104602f00afd0022a049104602f096
:1002dc0031fb00229e49012002f02cfbff238df8fc
:1002ec0014368df815368df816368df817368df8c0
:1002fc0018368df8193604220df214610aa802f092
:10030c0049fb00238df86230924c04f53245d4350c
:10031c0040f2ea5632460aa9204602f05ffc04f28b
:10032c00f654a542f6d18c4b8c4ac3f8dc2102f072
:10033c00fbfb8b4b10eb030a41f1020b323041f10a
:10034c000001884a10605160874a10605160874aea
:10035c001060516000242746dae040f2f6507d4be5
:10036c0000fb0430824b1b681a0a80f83c2080f892
:10037c003d30012380f83e30462101f04dfc04282d
:10038c0037d0022843d07b4b1b8803eb83037a4a7c
:10039c00012102f823100c44784b83fb04231a1917
:1003ac00e317c3eb2213c3eb0313a4eb4304e4b234
:1003bc0070490b886e4a108803eb83036e4a02eb7c
:1003cc00830358800a8801326c4b83fb020313446d
:1003dc001b11c3eb0313a2eb43039bb20b80614acb
:1003ec001368516866481b1847eb01011360516094
:1003fc009be0644b4ff40012c3f81c215d4b1b882f
:10040c0003eb83035c4aff2102f82310d0e7584a20
:10041c001368013313605c490a880132574b83fb24
:10042c00020313441b11c3eb0313a2eb43039bb254
:10043c000b80504b1b8803eb83034f4a002102f8bf
:10044c002310b5e7514b00221a70514b1b78002b2f
:10045c0000f0b080dff858c19cf8005005eb850e19
:10046c000df114084b4b03eb8e0ebee80f00a8e801
:10047c000f00def80010c8f800109df81420bdf82d
:10048c001630bdf81800ddf81ce0bdf820800135f1
:10049c00dff8e89089fb0569a9444fea2919c9ebf3
:1004ac000919a5eb49098cf80090dff8e4c09cf819
:1004bc000050013dedb28cf80050374d2d78002dd9
:1004cc0000f0ac80344b1a7834490df2346002f0f1
:1004dc00a1fb0df2346002f0b7fb0346304a0df27b
:1004ec003461002001f024fb2e4b1b7833b92e4bca
:1004fc00d3e900239b4508bf924509d2294b002222
:10050c001a701a461378002bfcd0264b00221a7056
:10051c0002f00afb244bc3e90001124bd3e9002380
:10052c00994208bf9042bff418af184b1b78002bb0
:10053c00dad0174b1b78002b84d11c4b1b78002b6b
:10054c00d2d07fe73c2c0000852c0000b12b0000a2
:10055c00cd2b0000e0b50020000800420809020085
:10056c0000e40b54c8680120b8680120d068012051
:10057c001c6f01203a6f0120d86801208988888877
:10058c0040420f0000800041366f0120476f012070
:10059c00426f0120306b0120436f012020280000a6
:1005ac00283400403d6f0120c0680120446f0120b9
:1005bc003c6f0120dff890c09cf8005005eb850ed5
:1005cc000df114081e4b03eb8e0ebee80f00a8e8cd
:1005dc000f00def80010c8f800109df81420bdf8cc
:1005ec001630bdf81800ddf81ce0bdf82080013590
:1005fc00dff8589089fb0569a9444fea2919c9eb22
:10060c000919a5eb49098cf80090dff844c09cf857
:10061c000050013dedb28cf800504ee70391cdf83f
:10062c000880cdf804e0009006490df2346002f029
:10063c00f1fa4ee701200df29c6dbde8f08f00bf82
:10064c00d8680120482800003e6f012089888888de
:04065c00446f0120c6
:020000040000fa
:100660002de9f041aeb006461546059100270599e3
:100670000b78002b00f0fa8000244ff0ff33cde917
:1006800009430eab0c9380230b940d930b5d0bb1c0
:10069000252b26d134b12246304602f0f2f9059bd3
:1006a00023440593059b1a78252a40f0d78003f14f
:1006b0000108cdf81480059803782b2b1ad025d883
:1006c000202b1bd0232b1dd02a2b27d002f064f81f
:1006d0000b90059b1a78303a092a2ed801330593de
:1006e000f7e70134d2e7099b43f001030130099396
:1006f0000590e0e7099b43f00403f7e7099b43f00b
:100700000803f3e7099b43f01003efe72d2bead032
:10071000302bd9d1099b43f00203e7e72b681a1d60
:100720001b682a600130002b05900b9305da099aab
:100730005b4282f0010209920b93099bda0744bfe6
:1007400023f002030993059b1a782e2a0dd100226b
:10075000581c0a9205905a782a2a25d1023305930b
:100760002b681a1d1b682a600a9305a802f078f806
:10077000059b0390187802f0cffa6928039979d085
:1007800032dc632800f0cb8019dc252800f0d9800a
:10079000612853d000234ff0ff32cdf81480099325
:1007a0000b930a920093d4e001f0f6ff0a90059ba8
:1007b0001a78303a092ad8d801330593f7e7642824
:1007c00058d06728e6dc2a4606a802f045f900283a
:1007d00000f0a180059b5a1c05921b7806aa09a966
:1007e000304602f0b7fa38e0702873d015dc6e2876
:1007f00000f08c806f28cdd12b46002206a801f096
:10080000d7fa002800f08780059b06aa013309a9c2
:100810003046059302f09cfa1fe075283ad07828fc
:1008200048d07328b6d1802975d1059b2a68013339
:100830000593131d2b60126800237de02a4606a84d
:1008400002f00af9002866d0059b5a1c05921b7815
:1008500006aa09a9304602f07dfa04443c44a742a6
:100860007add3e4b4f221a604ff0ff3738462eb0ec
:10087000bde8f0812b46012206a801f099fa002874
:1008800049d0059b06aa013309a93046059302f019
:100890005ffae2e72b46002206a801f089fa002859
:1008a00039d0059b06aa013309a93046059301f00a
:1008b00037fed2e72b46002206a801f079fa50b3a2
:1008c000059b5a1c05921b7806aa09a9304602f01e
:1008d00041fac2e72b460022f02106a801f068fa8f
:1008e000c8b1059b01330593dde9062313430bd102
:1008f0001b4802f0aff9099b009319490b9b024674
:10090000304601f045fca8e77823dde72b463a198d
:1009100006a801f07ffc059b013305939ee7802923
:10092000f9d1059b013305932b681a1d1b682a60ba
:100930008df8183006aa012309a9304602f00cfaf6
:100940008be78029e7d1059b01330593099b009331
:100950000b9b04490122d3e7274688e6306f01202c
:08096000442d00004a2d0000a7
:020000040000fa
:100968002de9f04f099f154604468e461e46002b7a
:1009780040f0cc808a42b2fa82fc4cd9bcf1000f1c
:100988000bd0ccf1200801fa0cfe20fa08f802fa84
:100998000cf548ea0e0e00fa0cf44fea15491ffa56
:1009a80085f8befbf9fa210c09fb1ae30afb08fbe0
:1009b80041ea03439b452ad9eb180af1ff3004d2d8
:1009c8009b4502d9aaf102002b44a3eb0b03a4b266
:1009d800b3fbf9f209fb123302fb08f844ea0344bb
:1009e800a04516d92c1902f1ff3303d2a04501d92d
:1009f800931e2c44a4eb080443ea004027b124fad0
:100a08000cf400233c607b603146bde8f08f504613
:100a1800dbe71346eee702b9ffdebcf1000f2ed18b
:100a28008b1a01264fea154eaab2b3fbfef8210c29
:100a38000efb183308fb02f941ea0343994561d9d3
:100a4800eb1808f1ff3004d2994502d9a8f1020049
:100a58002b44a3eb0903a4b2b3fbfef10efb113345
:100a68004a4344ea0344a2424ed92c1901f1ff3308
:100a780003d2a24201d98b1e2c44a41abce7ccf1a4
:100a8800200e02fa0cf521fa0ef901fa0cf320fafd
:100a98000efe4eea03034fea154800fa0cf4b9fbc0
:100aa800f8f11ffa85fe08fb1192180c01fb0ef6ef
:100ab80040ea0242964221d9aa1801f1ff3003d236
:100ac800964201d9881e2a44921b9bb2b2fbf8f9c0
:100ad80008fb192209fb0efe43ea02439e450fd983
:100ae800eb1809f1ff3604d29e4502d9a9f1020696
:100af8002b44a3eb0e0346ea004693e70846e3e7d8
:100b08004e46f6e74046a4e70b46b6e78b4206d9c1
:100b1800002f7ed00026c7e90001304674e7b3fafb
:100b280083fcbcf1000f0fd18b4201d3824209d85c
:100b3800841a61eb030e0120002f6dd0c7e9004e27
:100b4800002661e76046f7e7ccf1200e03fa0cf3c4
:100b580022fa0ef521fa0ef41d4301fa0cf320fadd
:100b68000ef10b434fea154a00fa0cf6b4fbfaf9fa
:100b78001ffa85f80afb19401c0c09fb08f144ea26
:100b88000044a14202fa0cf23fd92c1909f1ff30b6
:100b980004d2a14202d9a9f102002c44641a9bb2e2
:100ba800b4fbfaf90afb194409fb08f843ea0441c3
:100bb80088452cd9691809f1ff3304d2884502d930
:100bc800a9f10203294443ea0040a1eb0801a0fb74
:100bd80002894945c2464c4602d306d1464504d24d
:100be800b8eb020a69eb05040138afb1b6eb0a03aa
:100bf80061eb040606fa0efe23fa0cf34eea030331
:100c080026fa0cf6c7e900369ae74846c6e74b4687
:0c0c1800d9e73e463846f7e63e46f5e6d2
:020000040000fa
:100c240030b583b08e4b5a6a01925b690093009b86
:100c340033f02b031abf009b03f0d4030023894a2b
:100c44001370874b59695a690a435a61019b13f01f
:100c5400800f07d1019b13f0400f03d1019b13f4c4
:100c6400006f36d080490a880132804b83fb02032f
:100c740013441b11c3eb0313a2eb43039bb20b807e
:100c84007b4a13780133dbb213701e2b0cd0794be3
:100c94001b781d2b6fd0724b1a6842f400721a60d5
:100ca4001a6842f480621a6072490a7801326f4b02
:100cb40083fb020313441b11c3eb0313a2eb430393
:100cc4000b706d4a1378013313706c4a1388013327
:100cd4001380019b13f4002f0ad0614ad2f8ec313f
:100ce40023f0404366490b60d2f8e821654b1a6053
:100cf400019b13f0807f13d05b4803885849d1f8d7
:100d0400f441614a03eb830302eb83031c61d1f8d2
:100d1400f011038889b203eb830302eb8302918110
:100d2400019b13f4800f20d058490b884c48d0f80d
:100d3400fc41574a03eb830302eb83031c61d0f8a5
:100d4400f8010b8880b203eb830302eb83029081ea
:100d54000a880132454b83fb020313441b11c3eb86
:100d64000313a2eb43039bb20b80019b13f0020f0e
:100d740005d103b030bd474a394bda618be7464ba6
:100d8400188800eb8000454b03eb800001f044fc25
:100d9400434b197801eb4102424b03eb4223988900
:100da4004ff28872904228d03f4d55f8313023f0ed
:100db400010345f8313005ebc10300225a603b4b77
:100dc4001c780134a2f1773282fb04c02044001164
:100dd400c0eb0010a4eb40001870013182fb01232a
:100de4000b441b11c3eb0313a1eb43032c4a1370f5
:100df40005ebc3031a4a9361bbe79a7b12f0070f12
:100e0400d2d093f83c2093f83d5045ea022522487d
:100e1400028893f83b4093f83e3043ea041363f0ae
:100e24007f03dbb21a4c02eb82029200a3540388c4
:100e340003eb830304eb83046580028801320b4bcc
:100e440083fb024313441b11c3eb0313a2eb4303c1
:100e54009bb20380164a137801331370a4e700bfd2
:100e640000080042436f0120366f0120898888887a
:100e7400496f01203f6f0120446f01201c6f012046
:100e8400206f0120246f0120d8680120386f0120d1
:100e9400306b0120f0000020346f0120346b0120fe
:100ea400406f0120e001002000000020416f01207c
:040eb400426f012068
:020000040000fa
:100eb8006c4b9b7d002b00f0d38010b56a4b9c6a6d
:100ec800684b5b8b13f0020f16d0674bff2283f839
:100ed8002020022283f82120634b93f820305bb254
:100ee800b3f1ff3f00f08a805f4b93f820305bb28c
:100ef800062b00f09c8010bd5a4b5b8b13f0010f42
:100f080007d0594bff2283f82020022283f82120a2
:100f1800e2e7544b5b8b13f0040f07d0524bff22d0
:100f280083f82020012283f82120d5e74e4b93f83f
:100f380020305bb2032b42d0042b10d0022bcbd134
:100f4800494b1b692bb1484b9888002101f0b2fb33
:100f5800c2e7454b9888012101f0acfbbce7424a47
:100f6800936912699a420bd03f4a9268d15c3d4a14
:100f78009162591cd369002bfcd13b4b9961abe7bb
:100f8800394b5b6973b1384b9b885b0043f00103b5
:100f9800344a5362d369002bfcd1334b032283f8c4
:100fa800202099e72f4a536843f440335360d369ac
:100fb800002bfcd12c4b062283f820208ce72a4bef
:100fc800d9695b69013b8b420bd0264ad369002b58
:100fd800fcd1244b986a244bda6850540131d9610a
:100fe8007ae7204a536843f4e0235360d369002b1f
:100ff800fcd11d4b062283f82020e6e71a4b00227d
:1010080083f82020174a536843f440335360d36968
:10101800002bfcd1134b83221a76134b5b6a002bef
:101028003ff469af104b5b6a2046984763e70e4b65
:10103800002283f8202083f821200a4b83221a7685
:101048001a46538b03f03003102bfad1064b5b6a18
:10105800002b3ff450af044b5b6a204698474ae7a1
:0c106800704700bf00080043986e012094
:020000040000fa
:101074005d4b984200f0878018d95c4b984200f091
:101084009e8032d95a4b984200f0a0803bd9594bec
:10109400984200f0a28003f58063984240d1564afa
:1010a400536943f40043536100207047a3f5805310
:1010b40098424cd00cd8a3f50063984239d003f57c
:1010c400806398423cd0b0f1804f2bd00120704710
:1010d4004a4b984249d003f5806398424cd0a3f51b
:1010e400006398423ad001207047a3f50063984208
:1010f40057d003f5806398425ad0a3f50063984211
:1011040048d001207047a3f58063984206d13a4a3b
:10111400536943f4805353610020704701207047a2
:1011240001207047344a536943f00103536100209e
:101134007047314a536943f00203536100207047fa
:101144002d4a536943f004035361002070472a4a2f
:10115400536943f00803536100207047264a5369da
:1011640043f01003536100207047234a536943f04e
:1011740020035361002070471f4a536943f0400322
:101184005361002070471c4a536943f08003536144
:1011940000207047184a536943f480735361002058
:1011a4007047154a536943f4007353610020704734
:1011b400114a536943f480635361002070470e4a17
:1011c400536943f400635361002070470a4a53692a
:1011d40043f40053536100207047074a536943f4b2
:1011e4008043536100207047001c0040002c0040e5
:1011f4000034004000380040000800400014004063
:020000040000fa
:10120400584b984200f0a38018d9574b984200f0ed
:10121400908047d9554b984200f0928050d9544b56
:10122400984200f09c8003f50053984255d1514aee
:10123400936943f48033936100207047a3f52043fe
:10124400984200f086800cd8a3f5804398424dd094
:1012540003f50053984250d0b0f1824f3fd00120a3
:101264007047454b984276d00dd9444b984274d080
:1012740003f50053984213d13e4a936943f0800327
:10128400936100207047a3f50053984206d1394a70
:10129400936943f010039361002070470120704765
:1012a40001207047a3f58043984234d003f50053de
:1012b400984237d0a3f58043984225d00120704747
:1012c400a3f50053984206d12a4a936943f4005384
:1012d4009361002070470120704701207047254a20
:1012e400936943f00103936100207047214a936995
:1012f40043f002039361002070471e4a936943f050
:1013040004039361002070471a4a936943f40073fd
:10131400936100207047174a936943f48063936193
:1013240000207047134a936943f4006393610020db
:101334007047104a936943f48053936100207047c7
:101344000c4a936943f48043936100207047002062
:10135400704700207047002070470020704700202d
:10136400704700bf000001410080014100c00141fd
:1013740000e001410008004000a0004100c000411d
:020000040000fa
:101384004c4b984269d012d94b4b984200f0818063
:1013940033d8a3f5006398426dd003f58063984277
:1013a40070d0a3f5006398425ed001207047a3f586
:1013b4008053984235d00cd9404b98423fd003f526
:1013c4008063984242d0a3f50063984230d0012054
:1013d4007047a3f50063984269d003f5806398428f
:1013e40006d1374ad36943f00403d3610020704720
:1013f40010f13e4018bf01207047324b98424fd045
:1014040003f58063984206d12d4ad36943f480439f
:10141400d36100207047a3f50063c01a18bf0120f0
:101424007047274ad36943f00803d361002070470b
:10143400234ad36943f01003d36100207047204a44
:10144400d36943f02003d361002070471c4ad36959
:1014540043f04003d36100207047194ad36943f035
:101464008003d36100207047154ad36943f4807325
:10147400d36100207047124ad36943f40073d361e7
:10148400002070470e4ad36943f48063d36100207f
:1014940070470b4ad36943f40063d361002070475b
:1014a400074ad36943f40053d361002070470020f6
:1014b400704700bf001c0042002c00420014004290
:0814c400000800400034004262
:020000040000fa
:1014cc00444b98425cd010d9434b984266d031d9ea
:1014dc00424b984270d003f58063984273d0a3f5c9
:1014ec000063984261d001207047a3f54063984295
:1014fc0038d00dd93a4b98423bd003f580639842d3
:10150c0016d1384a136a43f0100313620020704757
:10151c00b0f1864f1fd0a3f58063984206d1314ab3
:10152c00136a43f0020313620020704701207047d6
:10153c0001207047a3f50063984228d003f580631f
:10154c00984206d1274a136a43f0800313620020a5
:10155c00704701207047234a136a43f0010313625a
:10156c00002070471f4a136a43f0040313620020e3
:10157c0070471c4a136a43f008031362002070473b
:10158c00184a136a43f02003136200207047154a6f
:10159c00136a43f04003136200207047114a136a28
:1015ac0043f480731362002070470e4a136a43f4ad
:1015bc0000731362002070470a4a136a43f4806375
:1015cc00136200207047074a136a43f400631362e6
:1015dc000020704700140043002000430028004303
:0815ec00000c00430008004060
:020000040000fa
:1015f40030b4441e00224349d1f8885014f8013f06
:1016040093402b43c1f888300132042af4d13d4b76
:10161400d3f88c1002790a43c3f88c20d3f88c20b9
:10162400417942ea4102c3f88c20841d0022194604
:10163400d1f8905014f8013b93402b43c1f89030fb
:101644000132042af4d12f4bd3f89410827a0a433e
:10165400c3f89420d3f89420c17a42ea4102c3f833
:10166400942000f10c040022194600bfd1f89850d0
:1016740014f8013b93402b43c1f898300132042afb
:10168400f4d1204bd3f89c10027c0a43c3f89c206d
:10169400d3f89c20417c42ea4102c3f89c2000f12b
:1016a40012040022194600bfd1f8a05014f8013bdf
:1016b40093402b43c1f8a0300132042af4d1114bda
:1016c400d3f8a410827d0a43c3f8a420d3f8a4203d
:1016d400c17d42ea4102c3f8a420d3f8ac100a4aff
:1016e4000a43c3f8ac20d3f8b010084a0a43c3f83d
:1016f400b020d3f8b410064a0a43c3f8b42000203b
:1017040030bc704700080042f78800807f88008062
:04171400887f00804a
:020000040000fa
:101718002de9f04383b004460e46174698469df8d7
:101728002890414a136843f0100313604ff40041b6
:10173800002001f00bfa4ff400414cf6012001f0b3
:10174800b0f905460df106014cf6012001f00efa3c
:101758000543a64298bf45f00105bdf80600b0f55f
:10176800004f18bf45f00105edb2002c39d0a6b2e4
:1017780031464cf6022001f094f904460df10601b9
:101788004cf6022001f0f2f9bdf8063004432c4370
:10179800b34218bf44f00104e4b227bbb8f1000f0c
:1017a8001bd0b9f1000f39d049ea082841464cf658
:1017b800052001f076f905460df106014cf60520e5
:1017c80001f0d4f9bdf8069028430443c1450cbf85
:1017d800a04644f001085ffa88f4204603b0bde84b
:1017e800f0833602c4e707eb87077f0007f0fe07a0
:1017f80039464cf6042001f054f905460df106016e
:101808004cf6042001f0b2f9bdf806302843044331
:10181800bb4218bf44f00104e4b2bfe74fea08280e
:0c18280048f08008c2e700bf0008004242
:020000040000fa
:10183400c46e01204c00000000000000886d0120ef
:10184400c000000000000000106f01200c00000028
:1018540000000000986e01202c0000000000000031
:1018640000000020b468010000000000346f012073
:1018740008000000000000001c6f012004000000ac
:10188400000000003c6f0120030000000000000085
:10189400476f012002000000010000000101000068
:1018a400b868012020000000000000003f6f012004
:1018b4000100000000000000206f0120040000006f
:1018c40000000000406f0120030000000000000041
:1018d400246f01200400000000000000436f012079
:1018e4000100000000000000446f0120030000001c
:1018f40000000000496f0120010000000100000009
:101904001e000000d8680120b004000000000000a0
:10191400286f01200400000000000000486e012030
:1019240050000000000000002c6f0120080000009f
:10193400000000000000000000000000666666660b
:020000040000fa
:10194400384b00221a7403f50063374a9a621a4628
:10195400536813f0100ffbd1344b4222c3f8842098
:101964001a4600bfd2f8843013f0400ffad0304b3f
:1019740000229a6377225a631a46d36b13f0040f3a
:10198400fbd12b4b022283f830201a46d36b13f081
:10199400020ffbd1264a136c03f00303032bfad185
:1019a400244b01225a711a46d37813f0010ffbd04d
:1019b4001e4b214a1a621a46536813f0040ffbd1d6
:1019c4001a4b1e4a5a621a46536813f0080ffbd189
:1019d400164b4122c3f890201a4600bfd2f890302b
:1019e40013f0400ffad0114b4122c3f8a0201a463d
:1019f400d2f8a03013f0400ffad00c4b4122c3f8b8
:101a040010211a46d2f8103113f0400ffad0094bc6
:101a14006ff07f421a6142f2ff725a6104221a6225
:101a2400704700bf0014004006013000001c004055
:101a340000100040000800400701010007010200f7
:020000040000fa
:101a44003c4b93f84c2042f0010283f84c2093f86d
:101a54004d2042f0010283f84d2093f84e2042f0cd
:101a6400010283f84e2093f84f2042f0010283f8dc
:101a74004f2093f8512042f0010283f8512093f84b
:101a8400522042f0010283f8522093f8532042f08e
:101a9400010283f8532093f8542142f0010283f8a1
:101aa400542193f8562142f0010283f8562193f809
:101ab400572142f0010283f8572193f8362042f06f
:101ac4000b0283f8362093f8362042f0b00283f8f4
:101ad400362093f8372042f00b0283f8372093f82e
:101ae400372042f0b00283f8372093f8382042f0d0
:101af400b00283f8382093f8392042f00b0283f8bf
:101b0400392093f8392042f0b00283f8392093f851
:101b14003a2142f00b0283f83a2193f83b2142f038
:101b24000b0283f83b2193f83b2142f0b00283f887
:081b34003b21704700800041d5
:020000040000fa
:101b3c0070b40401354d25442d7b04f1824404f529
:101b4c00204494f84e4014f0030f02d1edb2002d56
:101b5c0055d1040104f1824505f52045032685f88d
:101b6c004e602a4d254401262e73294d2c5b14f40e
:101b7c00806f19bfc91805eb0014254c04eb001439
:101b8c0061600101224c615a11f4006f27d01a4494
:101b9c0004eb00118a601e4902018c18895a9bb211
:101bac00c1f301210b419bb2638002f1824303f527
:101bbc0020431a6c42f002021a641a6c12f4fe4fa3
:101bcc001fd193f8463013f0400f1dd111490c6909
:101bdc00012202fa00f323430b61104612e00d4977
:101bec00498811f4404f04d1094901eb00118a6076
:101bfc00d1e71168064a02eb00129160cbe7002096
:101c0c0000e0012070bc70470120fbe7f06e012062
:081c1c00e06e012000a0004170
:020000040000fa
:101c240038b505460c462e4b188800eb80002d4b2a
:101c340003eb800000f0f0fcb4f5804f4cd22a4b4b
:101c44001b78002b4ad0294b1b78294a42f8335081
:101c540044f4004402ebc30254601d2b22d02549f6
:101c64000a780132d2b20a701e2a2bd001331f4add
:101c74001370214a136843f4007313601b4b1b78e1
:101c84001bb9136843f4806313601b4b5b6923f037
:101c94002903002b0cbf00200420134a1378013bb6
:101ca400137038bd44f08044114ac2f8ec40114925
:101cb4000a780132d2b20a701e2a03d00b4b0022da
:101cc4001a70d6e70b4a002111700133dbb2074ac0
:101cd40013701e2bcdd1f1e70120e2e70220e0e7eb
:101ce4003a6f0120dc680120496f0120466f012012
:0c1cf400f0000020456f012000080042b5
:020000040000fa
:101d000010b4294ad36823f4e0631b041b0c43f08e
:101d1000bf6343f40033d360bff35f8f62b6234bde
:101d2000e02183f80b134ff40060186083f80c1364
:101d30004ff480541c6083f80d134ff400541c6062
:101d400083f81f134ff000441c6083f846134024af
:101d50009c6083f8471380249c6083f848134ff4f9
:101d600080749c6083f849134ff4007199602021be
:101d700083f86b13d860002183f854134ff480115b
:101d80009960536a43f480235362536943f010030c
:101d90005361536a43f400335362536a43f480330c
:101da00053625df8044b704700ed00e000e100e095
:020000040000fa
:101db000882910b536d012dc812943d003dc802974
:101dc00040d0002010bd82290ed08429f9d1196895
:101dd00002b30a1d1a60b1f90020d3171ee0a02932
:101de0002bd00bdc9029ecd11968073121f00701c9
:101df00001f108021a60d1e900230fe0c02901d0e7
:101e0000f029ded11a68111d1960136803600023e0
:101e1000436005e00a1d1a600a880023c0e9002318
:101e20000120cfe7196822b10a1d1a6091f900203c
:101e3000d3e70a1d1a600a78efe71a68111d1960c6
:101e40001268cae719681ab10a1d1a600a68c4e75d
:0c1e50000c1d1c600b68c0e90032e1e7cb
:020000040000fa
:101e5c0010b582b040f6f604a0421bd840f6f3044d
:101e6c00a0422fd219280ed8182833d2102831d0de
:101e7c00122822d1009313460a460146012000f095
:101e8c00f3fa02b010bd872824d040f63404a042e7
:101e9c00f0d012e04cf60224a04208d8b0f54a4f1c
:101eac0018d8a0f6f904a4b2022ce3d905e000f589
:101ebc0057543c34a4b2012c0cd91a7842f00102cc
:101ecc001a70dee7009313460a460146032000f021
:101edc00cbfad6e7009313460a4601461f2000f0c2
:041eec00c3facee780
:020000040000fa
:101ef0002de9f041adf5be6d0546884616461c46f7
:101f000040f2ea52002101a800f0dafe270a47ea6f
:101f10000427bfb208f1ff3001ab721e08f10501c2
:101f200010f8016f03f8016b12f8016f5e718842bf
:101f3000f6d1b4f5c06f05d948f6f7039c4211d12c
:101f40002c2400e074b1ddf80826013a0df11101ee
:101f5000002300bf12f8010f01f8010f01339bb2fb
:101f6000a342f7d3adf8107040f2ea5201a9284617
:101f700000f03afe28460df5be6dbde8f08100bfc9
:020000040000fa
:101f800010b582b000230193030103f1824303f5ee
:101f9000204393f84e30dbb20193019b13f0020f04
:101fa0000dd0010101f1824202f52042022382f8a4
:101fb0004e30134b0b4400221a73012400e002241c
:101fc000019b13f0010f0cd0010101f1824202f5d7
:101fd0002042012382f84e30094b0b4400221a7331
:101fe0000224074b03eb00135b6833b1044a02eb96
:101ff000001399685b682046984702b010bd00bf87
:04200000f06e01205d
:020000040000fa
:102004001e4a137843f001031370536813f0010f51
:10201400fbd11a490b7843f010030b709923cb6161
:1020240000220a6203230b634a630b61144b1a8177
:1020340001229a8210221a849a851a87a3f84420ce
:10204400a3f85020a3f85c20a3f86820a3f8742018
:10205400a3f88020a3f88c20a3f89820a3f8a42048
:10206400a3f8b020a3f8bc200b7843f002030b7054
:102074000a46536813f0020ffbd170470028004052
:04208400886d012042
:020000040000fa
:1020880008b5184b9847184b9847eff3108172b66c
:10209800164ad2f8883043f47003c2f88830bff388
:1020a8004f8fbff36f8f01b962b6114a936823f05f
:1020b80001039360d36813f0010ffbd10c4b24226a
:1020c8005a6001229a6000f0e5fb0a4b23f07f0377
:1020d800064a9360084b9847084b9847084b98471f
:1020e800fef7d0f8652d0000652d000000ed00e03a
:1020f800006000410000000069230000652d000019
:04210800652d000041
:020000040000fa
:10210c002de9f04184b007460e46154698461b480b
:10211c0000f0dafb0446fff78ffc00f0b7fd9df8ea
:10212c00343000939df830309df82c209df8281009
:10213c004046fff7ebfa0443e4b2384600f068f986
:10214c000443e4b2304600f0fdfa0443e4b22846fe
:10215c00fff74afa0443e4b2094b93e803000290f8
:10216c00adf80c1002a800f0fdfb0443e4b200f043
:10217c0027fa204604b0bde8f08100bf00080042f9
:04218c003c2d0000e6
:020000040000fa
:102190002de9ff471d460c9b13f0010906468a46b0
:1021a000144601d195420bd822465146304600f0e4
:1021b00068fca54204d82546284604b0bde8f0874f
:1021c0002f1b102f3a464ff0200128bf10226846df
:1021d000b84600f075fd00bfb8f10f0f11d83b09ec
:1021e0006ff00f0202fb03726946304600f049fcb3
:1021f000b9f1000fe0d122465146304600f041fcd3
:10220000dae710226946304600f03bfca8f11008de
:04221000e2e700bf42
:020000040000fa
:10221400842910b523d00cdc812903d0822913d062
:1022240080290bd119680c1d1c600b6803601a60af
:1022340013e0902921d003dc882917d0002010bd99
:10224400a029efd0c029ece719680c1d1c600b68ad
:102254000360d1171046c3e900010120efe71968b4
:102264000c1d1c600b6803601a80f6e719680c1dce
:102274001c600b6803601a70efe719680c1d1c6082
:0c22840009680160d317c1e90023e6e7f8
:020000040000fa
:102290002de9f84f04460c9f6668d4f80cb0246909
:1022a00010463a68013c002502f0020a0b9a0bf82e
:1022b0000450002e1946b8bf0126012390464fea6c
:1022c000e279002c03dcd3b12046bde8f88f50ea58
:1022d000010209d1721b002a06dc0a9a521b002a4d
:1022e000f1ddbaf1000feed042464b4600f070fb34
:1022f000013c134630320bf804200135e1e73b681e
:0823000023f010033b60dfe74e
:020000040000fa
:10230800144b01221a601a46d369002bfcd1114bd9
:102318004ff480725a601a46d369002bfcd10d4bda
:10232800ff22da600c4a1a601a46d369002bfcd1e6
:10233800084b10225a831a46d369002bfcd1074b4d
:10234800002283f8212083f82020024b83229a75eb
:10235800704700bf0008004316001000986e012067
:020000040000fa
:102368000e4a38b5002313600d4a0e4c13600e4a0e
:102378000e4d13600e4a13600e4a13600e4a5362e4
:1023880013610123936000f0ebfc00f0e9fcac4220
:1023980000d338bd54f8043b9847f8e72c6f012068
:1023a800546e012070020000506e0120740200007b
:0c23b800486e01204c6e0120586e012080
:020000040000fa
:1023c40010b4104a002111705160916011730e4cc9
:1023d4000e4b5c630e489863586940f08130586135
:1023e4000c48186440f20940208083f8451001210c
:1023f4001170032283f84d2040f602721a805df8b2
:10240400044b7047f06e0120e06e012000a00041f3
:08241400006f01200007200009
:020000040000fa
:10241c0010b4124a136943f4c0131361044658b143
:10242c000f4a104b03ebc00000211a60596002f5f3
:10243c00c06208338342f8d1601e0a4a52f8303029
:10244c0043f0020342f83030044b9a611a6842f0b0
:10245c0004021a6000205df8044b7047000800422b
:08246c00e00100200000002047
:020000040000fa
:102474002de9f0410f4690461d46069e00f01f04cc
:1024840021460d2000f064fb39460e2000f060fb6d
:1024940044f480410d2000f05bfb012d07d0022d98
:1024a4000bd0337843f001033370bde8f081b8f802
:1024b40000100e2000f04cfbf7e70e2000f006fba6
:0624c400a8f80000f1e79a
:020000040000fa
:1024ca00f0b58fb004460d4616461f462822002155
:1024da0004a800f0f0fb9df850308df80c30202352
:1024ea008df80d302323adf80e30002f14bf0223d0
:1024fa000023adf812309df854308df82d3003ab1f
:10250a00009348f68803324629462046fff7ebfc3b
:06251a0020460fb0f0bde9
:020000040000fa
:10252000f0b50c4649682368a668e76887b00029bb
:102530000593a4bf23f00203059305ab02930a237e
:10254000cde900630546d2e900232046fff7a0fe4f
:102550002269059b0093013a3346121a391828461e
:10256000fff716fe6b68db0503d563689842b8bfba
:06257000184607b0f0bda3
:020000040000fa
:022576007047ac
:020000040000fa
:10257800134b01221a801a46136913f0010ffbd17d
:102588000f4b48f280121a801a46136913f4004f51
:10259800fbd10b4b4ff400721a621a46136913f001
:1025a800200ffbd1064b00225a621a46136913f01a
:1025b800400ffbd1024b4ff480725a81704700bf25
:0425c80000240040ab
:020000040000fa
:1025cc00124b9a6a42f040029a629a6a42f4006292
:1025dc009a629a6a42f080029a629a6a42f4801273
:1025ec009a629a6a42f002029a629a6a42f48022d1
:1025fc009a629a6a42f480029a629a6a42f40022bf
:10260c009a629a6a42f080729a627047000800429d
:020000040000fa
:10261c0082b0124bd3f8d42122f040424260d3f85e
:10262c00d02192b20280d3f8d42122f04042019200
:10263c00d3f8d03123f04043009303889bb2009a27
:10264c00934201d002b070474268019b9a42f9d97b
:10265c000388013b9bb20380f4e700bf00080042f3
:020000040000fa
:10266c0030b589b015464ff0ff32019202f20312d9
:10267c00029200b96846cde9030151b14c1e002904
:10268c00059408da094b4f221a604ff0ff3009b05d
:10269c0030bd0c46f3e700220270cde906001a4665
:1026ac00294601a800f0a8faf1e700bf306f01201d
:020000040000fa
:1026bc00104b00229a61da610f4b83221a765a680a
:1026cc0022f480225a601a46d369002bfcd161b1e6
:1026dc00084b032283f8202041ea4001064b596243
:1026ec001a46d369002bfcd17047024b042283f8a5
:0c26fc002020f1e7986e01200008004348
:020000040000fa
:10270800104b4ff40012c3f80021002283f8552122
:10271800012183f85b1183f83a21202083f83d01d9
:102728000320c3f89001052083f8c00183f8c10194
:1027380083f8c81183f8c91183f8b021332283f8cc
:08274800b4217047008000413c
:020000040000fa
:1027500010b4044650b10e4b03ebc00000214ff003
:10276000004219605a6008338342fad1631e084957
:1027700001ebc3035a6842f080425a60054bd961ad
:102780001a6842f008021a6000205df8044b704796
:08279000f000002000080042e7
:020000040000fa
:1027980010b50278202a034600f10100f9d0a2f111
:1027a80009010429f5d92b2a07d02d2a11d1012195
:1027b8000133013b00200a2403e00021f8e76043cd
:1027c800801a13f8012f303a092af8d901b9404282
:0627d80010bd0021ede739
:020000040000fa
:0227de00fee714
:020000040000fa
:1027e00010b5054c227832b9044b13b10448aff34d
:1027f00000800123237010bdc46e01200000000082
:102800000000000008b5034b1bb103490348aff3b8
:10281000008008bd00000000c86e0120000000001c
:020000040000fa
:1028200048572d4572726f72206f6e204d61632084
:102830004c617965722054535220737461747573be
:10284000202575200d0a0000257520257520257589
:1028500020256c7520257520256c75200d0a00003b
:020000040000fa
:1028600030b50d4a002300bf12f8134024b902eb23
:1028700043035b78184630bd01680d78a54209bf57
:1028800002eb430301335b78013114bfdbb201601b
:0c2890000a2be9d9eee700bf6c2c000019
:020000040000fa
:10289c0070b50b480b4d4ff6ff76016821b94368b4
:1028ac0013b900f05afa70bd83684268334000f1e6
:1028bc000c0455f823302046984704eb8000ece7d5
:0828cc0034180000ac2c0000e0
:020000040000fa
:1028d40008b5b0f1824f0ad3b0f1844f0ad3b0f1f6
:1028e400864f0ad3b0f1884f0ad3012008bdfef702
:1028f400bffbfbe7fef784fcf8e7fef741fdf5e7d5
:06290400fef7e2fdf2e720
:020000040000fa
:02290a00fee7e6
:020000040000fa
:10290c000a4b0b4a1a604cf215129a814ff4803222
:10291c005a601a46d369002bfcd1044a136843f061
:10292c0002031360d369002bfcd1704700340040c4
:04293c000401104042
:020000040000fa
:1029400030b400eb4004094b03eb84031b899bb2ba
:10295000834201d030bc7047044b44002518ad00c1
:102960005951204403eb80035a60f3e7886d01203e
:020000040000fa
:10297000c27883781b0443ea0263027813434278e7
:1029800043ea0223054ac2f888304179037943ead1
:102990000123c2f88c300020704700bf00080042bd
:020000040000fa
:1029a00030b585b004460d46084b93e8030002900d
:1029b000adf80c1001921223009300232a4602a9bd
:1029c0002046fff782fd204605b030bd102d0000e7
:020000040000fa
:1029d00053b94ab9002908bf00281cbf4ff0ff3186
:1029e0004ff0ff3000f0bab9adf1080c6de904ce3c
:1029f000fdf7baffddf804e0dde9022304b070471b
:020000040000fa
:102a000008b5084b9a8992b207494a604cf2ff32e6
:102a10009a819b890b6823b10b46486889681b68bb
:0c2a2000984708bd00240040106f012002
:020000040000fa
:102a2c0008b500f063f9fff769fefef785fffff7c5
:102a3c0067fffff79afdfff761fcfff7bdfcfff79f
:0c2a4c00dbfafff793fdfff755f908bd1a
:020000040000fa
:102a5800802910db812901dd83290cd11368073314
:102a680023f0070303f108011160d3e90023c0e94b
:0a2a78000023012070470020704782
:020000040000fa
:102a820038b50569954228bf154604465db12a4608
:102a9200406900f0a8f8636922692b44551b0022a3
:082aa200636125611a7038bd63
:020000040000fa
:102aaa0000b585b0adf8061000238df80f300df192
:102aba000f0301220df10601fff7cbf99df80f0074
:062aca0005b05df804fbfd
:020000040000fa
:102ad000800440f0c04040f40030054b58631a4673
:102ae000936813f0040ffbd0014b586b80b2704712
:042af0000008004298
:020000040000fa
:102af40008b5054b01225a61044b1b681bb1034bfb
:102b040058681b68984708bd00280040886d01205c
:020000040000fa
:102b140008b5054b02225a61044bdb681bb1034b19
:102b24001869db68984708bd00280040886d0120bb
:020000040000fa
:102b3400054bd3f8d401d3f8d02120f04040002134
:102b4400024be3fb020170470008004200ca9a3bb3
:020000040000fa
:102b540041ea804141f0a04141f40031034b596303
:102b64001a46936813f0040ffbd070470008004224
:020000040000fa
:102b740000b583b000238df807300df1070302225e
:0e2b8400fff76af99df8070003b05df804fb47
:020000040000fa
:102b920010b50023934206d113f0030018bf0120a1
:0e2ba20000eb930010bdc45ccc540133f2e78d
:020000040000fa
:102bb000044bd3f8a03113f0010f02d0024b0122d5
:0c2bc0001a707047008000413d6f01203a
:020000040000fa
:102bcc00044bd3f8a03113f0020f02d0024b0122b8
:0c2bdc001a70704700800041486f012013
:020000040000fa
:102be8005ab110b40a44431e11f8014b03f8014fbf
:0c2bf8009142f9d15df8044b7047704722
:020000040000fa
:102c040013b50446019201aafdf728fd636813f089
:0c2c1400100f18bf4ff0ff3002b010bdd1
:020000040000fa
:102c20000eb403b503aa52f8041b019200f07bf81e
:0a2c300002b05df804eb03b070473a
:020000040000fa
:022c3a00fee7b3
:020000040000fa
:102c3c000004251ca0020004251ca002ffffffffbe
:082c4c00ffffffffffffffff88
:020000040000fa
:102c540003783bb1034600bf13f8012f002afbd1d0
:082c6400181a7047184670476a
:020000040000fa
:102c6c0068076c094c836a9074a07ac000806888ed
:062c7c0000846c8200815f
:020000040000fa
:022c8200fee76b
:020000040000fa
:102c8400012800d07047024b01221a70fae700bff6
:042c9400476f012065
:020000040000fa
:102c9800034b002018605a6842f000725a6070476f
:042ca80000080042de
:020000040000fa
:102cac00d52c0000932b00004d2d00004d2d000065
:042cbc004d2d00009a
:020000040000fa
:102cc00032b1c9b20244034603f8011b9342fbd15f
:042cd000704700bf8a
:020000040000fa
:102cd4000a440023914201d10020704701f8013bce
:022ce400f8e70f
:020000040000fa
:022ce600fee707
:020000040000fa
:102ce800024b03eb0010416082607047f06e0120d8
:020000040000fa
:102cf800024b40f204521a80704700bf0040004166
:020000040000fa
:102d0800011b1900000000000180c200000e00bf76
:020000040000fa
:0e2d1800a0f14103192b98bf40f02000704736
:020000040000fa
:0c2d260013460a466ff00041fff79dbc09
:020000040000fa
:0a2d320008b50020fff723f908bde3
:020000040000fa
:082d3c000004251ca00200bfe9
:020000040000fa
:082d4400286e696c29002500ce
:020000040000fa
:042d4c0000207047ac
:020000040000fa
:042d500000207047a8
:020000040000fa
:042d540000207047a4
:020000040000fa
:042d580000207047a0
:020000040000fa
:042d5c00704700bffd
:020000040000fa
:022d6000fee78c
:020000040000fa
:022d6200fee78a
:020000040000fa
:022d64007047b6
:020000040000fa
:022d66007047b4
:020000040000fa
:022d68007047b2
:020000040000fa
:0200000400807a
:044000003912003c35
:020000040000fa
:0200000400807a
:044004008000a82a66
:020000040000fa
:0200000400807a
:04400800ffffffffb8
:00000001FF
