:020000040000fa
:10000000f0ff0320991d0000072700004327000090
:1000100057270000592700005b2700000000000060
:1000200000000000000000000000000003250000a8
:1000300055270000000000000325000003250000f4
:100040000325000003250000032500000325000010
:100050000325000003250000032500000325000000
:10006000032500000325000003250000852400006f
:100070004d2500006d25000003250000032500002c
:1000800003250000032500000325000003250000d0
:1000900003250000032500000325000003250000c0
:1000a00003250000032500000325000003250000b0
:1000b0000325000003250000032500003927000068
:1000c0000325000003250000032500000325000090
:1000d0000325000003250000032500000325000080
:1000e00003250000032500000000000000000000c0
:1000f0000000000003250000032500000325000088
:10010000032500000325000003250000032500004f
:10011000032500000325000003250000032500003f
:10012000032500000325000003250000032500002f
:10013000032500000325000003250000032500001f
:10014000032500000325000003250000032500000f
:100150000325000003250000150700001507000017
:100160001507000015070000032500000325000007
:1001700003250000032500000325000003250000df
:1001800003250000032500000325000003250000cf
:10019000651500000325000003250000032500006d
:1001a00003250000032500000325000003250000af
:1001b000032500000325000003250000032500009f
:1001c000032500000325000003250000032500008f
:1001d000032500000325000003250000032500007f
:1001e000032500000325000003250000032500006f
:1001f000032500000325000003250000032500005f
:10020000032500000325000003250000032500004e
:10021000032500000325000003250000032500003e
:10022000032500000325000003250000032500002e
:10023000032500000325000003250000032500001e
:10024000032500000325000003250000032500000e
:1002500003250000032500000325000003250000fe
:040260000325000072
:020000040000fa
:10026400f8b500bff8bc08bc9e467047d122000018
:10027400f8b500bff8bc08bc9e467047ad2200002c
:020000040000fa
:08028400080000000100000069
:020000040000fa
:10028c002de9f04f099f154604468e461e46002b5d
:10029c0040f0cc808a42b2fa82fc4cd9bcf1000fff
:1002ac000bd0ccf1200801fa0cfe20fa08f802fa67
:1002bc000cf548ea0e0e00fa0cf44fea15491ffa39
:1002cc0085f8befbf9fa210c09fb1ae30afb08fbc3
:1002dc0041ea03439b452ad9eb180af1ff3004d2bb
:1002ec009b4502d9aaf102002b44a3eb0b03a4b249
:1002fc00b3fbf9f209fb123302fb08f844ea03449e
:10030c00a04516d92c1902f1ff3303d2a04501d90f
:10031c00931e2c44a4eb080443ea004027b124fab2
:10032c000cf400233c607b603146bde8f08f5046f6
:10033c00dbe71346eee702b9ffdebcf1000f2ed16e
:10034c008b1a01264fea154eaab2b3fbfef8210c0c
:10035c000efb183308fb02f941ea0343994561d9b6
:10036c00eb1808f1ff3004d2994502d9a8f102002c
:10037c002b44a3eb0903a4b2b3fbfef10efb113328
:10038c004a4344ea0344a2424ed92c1901f1ff33eb
:10039c0003d2a24201d98b1e2c44a41abce7ccf187
:1003ac00200e02fa0cf521fa0ef901fa0cf320fae0
:1003bc000efe4eea03034fea154800fa0cf4b9fba3
:1003cc00f8f11ffa85fe08fb1192180c01fb0ef6d2
:1003dc0040ea0242964221d9aa1801f1ff3003d219
:1003ec00964201d9881e2a44921b9bb2b2fbf8f9a3
:1003fc0008fb192209fb0efe43ea02439e450fd966
:10040c00eb1809f1ff3604d29e4502d9a9f1020678
:10041c002b44a3eb0e0346ea004693e70846e3e7ba
:10042c004e46f6e74046a4e70b46b6e78b4206d9a4
:10043c00002f7ed00026c7e90001304674e7b3fade
:10044c0083fcbcf1000f0fd18b4201d3824209d83f
:10045c00841a61eb030e0120002f6dd0c7e9004e0a
:10046c00002661e76046f7e7ccf1200e03fa0cf3a7
:10047c0022fa0ef521fa0ef41d4301fa0cf320fac0
:10048c000ef10b434fea154a00fa0cf6b4fbfaf9dd
:10049c001ffa85f80afb19401c0c09fb08f144ea09
:1004ac000044a14202fa0cf23fd92c1909f1ff3099
:1004bc0004d2a14202d9a9f102002c44641a9bb2c5
:1004cc00b4fbfaf90afb194409fb08f843ea0441a6
:1004dc0088452cd9691809f1ff3304d2884502d913
:1004ec00a9f10203294443ea0040a1eb0801a0fb57
:1004fc0002894945c2464c4602d306d1464504d230
:10050c00b8eb020a69eb05040138afb1b6eb0a038c
:10051c0061eb040606fa0efe23fa0cf34eea030313
:10052c0026fa0cf6c7e900369ae74846c6e74b466a
:0c053c00d9e73e463846f7e63e46f5e6b5
:020000040000fa
:100548002de9f041644e304601f0eaff04460d46bd
:1005580006f1300001f0e4ff8d4208bf844235d235
:100568005e4b001b61eb050218605a605c4b012270
:100578001a705c4b1b78002b32d1584bd3e90023ff
:100588004ff080400021994208bf904274d2524aed
:100598005168554bc3f8d0119268c3f8d421002292
:1005a80050490a704d4c104622606260c3f8bc2165
:1005b8004e4ac3f8dc21024603464d49c1e90023ef
:1005c800474b1a784b4b1a70bde8f081434b201a01
:1005d80065eb010218605a60414b00221a70c8e7a7
:1005e800dff8f480404601f09bff06460d4608f10f
:1005f800180001f095ff361a65eb010508f1300087
:1006080001f08eff04460f4608f1480001f088ff0c
:10061800201a67eb0101374b1b7833b3344b1a6848
:100628005b68821841eb0303334ca905b00541ea26
:10063800962101f00bff2368626800fb02f201fbc0
:100648000322a3fb00011144830d43ea81238a0d91
:1006580023606260030f43ea01139bb2224ac2f887
:10066800bc310b0bc2f8dc3187e7214b1a685b6899
:10067800821a61eb0303d7e71949097842eac17185
:100688001948c0f8d81117490120087041f287307d
:100698000021994208bf904202d3184901200870ee
:1006a8001649097851b11649097839b9154900240c
:1006b8000025c1e9004512490120087012490020af
:1006c80008701049d1e90001994208bf90423cbf27
:1006d8000c49c1e9002370e7e8680120506901204e
:1006e800d8680120eb6b01200008004208090200cd
:1006f800e068012048690120d86b0120d36b0120f4
:0c070800d06b0120e06b0120d16b0120c0
:020000040000fa
:100714006c4b9b7d002b00f0d38010b56a4b9c6a18
:10072400684b5b8b13f0020f16d0674bff2283f8e4
:100734002020022283f82120634b93f820305bb2ff
:10074400b3f1ff3f00f08a805f4b93f820305bb237
:10075400062b00f09c8010bd5a4b5b8b13f0010fed
:1007640007d0594bff2283f82020022283f821204e
:10077400e2e7544b5b8b13f0040f07d0524bff227c
:1007840083f82020012283f82120d5e74e4b93f8eb
:1007940020305bb2032b42d0042b10d0022bcbd1e0
:1007a400494b1b692bb1484b9888002101f00efd81
:1007b400c2e7454b9888012101f008fdbce7424a95
:1007c400936912699a420bd03f4a9268d15c3d4ac0
:1007d4009162591cd369002bfcd13b4b9961abe767
:1007e400394b5b6973b1384b9b885b0043f0010361
:1007f400344a5362d369002bfcd1334b032283f870
:10080400202099e72f4a536843f440335360d36957
:10081400002bfcd12c4b062283f820208ce72a4b9a
:10082400d9695b69013b8b420bd0264ad369002b03
:10083400fcd1244b986a244bda6850540131d961b5
:100844007ae7204a536843f4e0235360d369002bca
:10085400fcd11d4b062283f82020e6e71a4b002228
:1008640083f82020174a536843f440335360d36914
:10087400002bfcd1134b83221a76134b5b6a002b9b
:100884003ff469af104b5b6a2046984763e70e4b11
:10089400002283f8202083f821200a4b83221a7631
:1008a4001a46538b03f03003102bfad1064b5b6ac4
:1008b400002b3ff450af044b5b6a204698474ae74d
:0c08c400704700bf00080043306b0120ab
:020000040000fa
:1008d0002de9f043adf2246d0df5c1645a4d0fcdf5
:1008e0000fc495e8030084e80300002001f0e0fd58
:1008f0000023039302930193022200920df5c1623b
:100900001e21084601f08afa012800f09880002292
:100910004e49104601f0f8fe00224d49104601f004
:1009200051fd00224b49012001f04cfdff238df8c1
:1009300000368df801368df802368df803368df8c5
:1009400004368df8053604220df5c06105a801f0c6
:1009500069fd00238df84e303f4c04f53245d43507
:1009600040f2ea58424605a9204601f069fe04f229
:10097000f654ac42f6d1394b394ac3f8dc2101f0c8
:1009800005fe384bc61841f10207323041f1000133
:10099000354a10605160354a10605160344a106029
:1009a00051600024334ddff8dc80a1462fe040f297
:1009b000f650294b00fb04302f4b1b681b0a80f8b4
:1009c0003c30462100f0c8ff02280cd001342b4bec
:1009d00083fb04231a19e317c3eb2213c3eb03139e
:1009e000a4eb4304e4b2204a1368516813eb0803f4
:1009f00041eb09011360516016e0214b00221a708f
:100a00001a461378002bfcd01d4b00221a7000f000
:100a10003bf801f0bbfdc5e90001134bd3e900230e
:100a2000994208bf9042c2d2154b1b78002be4d1eb
:100a3000d5e900239f4208bf9642e8d2dde70120b6
:100a40000df2246dbde8f0835c260000a5260000b1
:100a50000926000025260000e0b50020000800421d
:100a60000809020000e40b54c8680120b86801209e
:100a7000d0680120c0680120b46b01208988888873
:080a8000c96b012040420f0088
:020000040000fa
:100a880030b583b05b4b1b6a0193019b83b1019b1b
:100a980013f0020f0ed1019b13f0010f4ad1019bf5
:100aa80013f0040f69d1019b13f0080f40f0828006
:100ab80003b030bd4f4a136a43f0020313624e4b32
:100ac80019684e4b1a684e4c207800eb40004d4b8d
:100ad80003eb402001f0dcf9237801334a4a82fb1a
:100ae80003121a441211c2eb0212a3eb4203dbb247
:100af8002370464a12789a42cdd0454c454d0fcdc9
:100b08000fc495e80f0007c424f8023b1b0c2370a0
:100b1800414b1b78002bbed000243f4b1c703c4d32
:100b2800284601f0affd03463c4a2946204600f01e
:100b38009bfeb0e72f4a136a43f001031362344c5b
:100b4800374d0fcd0fc495e8030044f8040b24f883
:100b5800021b090c2170304b1b78002b9fd00024fe
:100b68002d4b1c702a4d284601f08cfd03462b4a5c
:100b78002946204600f078fe91e71e4a136a43f0a2
:100b880004031362224c274d0fcd0fc42b6823801a
:100b9800214b1b78002b86d000241f4b1c701c4d4a
:100ba800284601f06ffd03461c4a2946204600f0fe
:100bb8005bfe78e70f4a136a43f0080313621a4b87
:100bc800134c0fcb07c424f8023b1b0c2370124ba9
:100bd8001b78002b3ff46caf00240f4b1c700c4d9e
:100be800284601f04ffd03460c4a2946204600f0ee
:100bf8003bfe5de700080042bc6b0120b86b01209a
:100c0800c86b0120e001002089888888cc6b01200e
:100c180058690120681f0000e86b01202834004053
:0c0c2800881f0000a01f0000b41f000087
:020000040000fa
:100c34005d4b984200f0878018d95c4b984200f0d5
:100c44009e8032d95a4b984200f0a0803bd9594b30
:100c5400984200f0a28003f58063984240d1564a3e
:100c6400536943f40043536100207047a3f5805354
:100c740098424cd00cd8a3f50063984239d003f5c0
:100c8400806398423cd0b0f1804f2bd00120704754
:100c94004a4b984249d003f5806398424cd0a3f55f
:100ca400006398423ad001207047a3f5006398424c
:100cb40057d003f5806398425ad0a3f50063984255
:100cc40048d001207047a3f58063984206d13a4a80
:100cd400536943f4805353610020704701207047e7
:100ce40001207047344a536943f0010353610020e3
:100cf4007047314a536943f002035361002070473f
:100d04002d4a536943f004035361002070472a4a73
:100d1400536943f00803536100207047264a53691e
:100d240043f01003536100207047234a536943f092
:100d340020035361002070471f4a536943f0400366
:100d44005361002070471c4a536943f08003536188
:100d540000207047184a536943f48073536100209c
:100d64007047154a536943f4007353610020704778
:100d7400114a536943f480635361002070470e4a5b
:100d8400536943f400635361002070470a4a53696e
:100d940043f40053536100207047074a536943f4f6
:100da4008043536100207047001c0040002c004029
:100db40000340040003800400008004000140040a7
:020000040000fa
:100dc400584b984200f0a38018d9574b984200f032
:100dd400908047d9554b984200f0928050d9544b9b
:100de400984200f09c8003f50053984255d1514a33
:100df400936943f48033936100207047a3f5204343
:100e0400984200f086800cd8a3f5804398424dd0d8
:100e140003f50053984250d0b0f1824f3fd00120e7
:100e24007047454b984276d00dd9444b984274d0c4
:100e340003f50053984213d13e4a936943f080036b
:100e4400936100207047a3f50053984206d1394ab4
:100e5400936943f0100393610020704701207047a9
:100e640001207047a3f58043984234d003f5005322
:100e7400984237d0a3f58043984225d0012070478b
:100e8400a3f50053984206d12a4a936943f40053c8
:100e94009361002070470120704701207047254a64
:100ea400936943f00103936100207047214a9369d9
:100eb40043f002039361002070471e4a936943f094
:100ec40004039361002070471a4a936943f4007342
:100ed400936100207047174a936943f480639361d8
:100ee40000207047134a936943f400639361002020
:100ef4007047104a936943f480539361002070470c
:100f04000c4a936943f480439361002070470020a6
:100f14007047002070470020704700207047002071
:100f2400704700bf000001410080014100c0014141
:100f340000e001410008004000a0004100c0004161
:020000040000fa
:100f44005c6b01204c00000000000000206a0120be
:100f5400c000000000000000a86b01200c0000008d
:100f640000000000306b01202c0000000000000095
:100f740000000020b468010000000000b46b0120f0
:100f84000400000000000000c86b01200100000004
:100f940000000000c96b01200100000000000000f7
:100fa40058690120c800000000000000e86b01201f
:100fb400020000000100000001010000b8680120e7
:100fc4002000000000000000ca6b012001000000a6
:100fd40000000000b86b01200400000000000000c5
:100fe400cb6b01200200000000000000bc6b01205c
:100ff4000400000000000000cd6b0120010000008f
:1010040000000000ce6b0120020000000000000080
:10101400ea6b012001000000010000001e00000036
:10102400d06b01200400000000000000d86b0120f8
:1010340008000000010000005555150200000000e2
:10104400eb6b012001000000010000000100000022
:10105400e06b0120080000000100000000ca9a3b78
:1010640000000000d46b0120040000000100000017
:10107400ffffffffd868012080000000000000008f
:10108400c06b01200400000000000000e06a0120a1
:101094005000000000000000c46b012004000000a8
:1010a40000000000000000000000000066666666a4
:020000040000fa
:1010b4004c4b984269d012d94b4b984200f0818036
:1010c40033d8a3f5006398426dd003f5806398424a
:1010d40070d0a3f5006398425ed001207047a3f559
:1010e4008053984235d00cd9404b98423fd003f5f9
:1010f4008063984242d0a3f50063984230d0012027
:101104007047a3f50063984269d003f58063984261
:1011140006d1374ad36943f00403d36100207047f2
:1011240010f13e4018bf01207047324b98424fd017
:1011340003f58063984206d12d4ad36943f4804372
:10114400d36100207047a3f50063c01a18bf0120c3
:101154007047274ad36943f00803d36100207047de
:10116400234ad36943f01003d36100207047204a17
:10117400d36943f02003d361002070471c4ad3692c
:1011840043f04003d36100207047194ad36943f008
:101194008003d36100207047154ad36943f48073f8
:1011a400d36100207047124ad36943f40073d361ba
:1011b400002070470e4ad36943f48063d361002052
:1011c40070470b4ad36943f40063d361002070472e
:1011d400074ad36943f40053d361002070470020c9
:1011e400704700bf001c0042002c00420014004263
:0811f400000800400034004235
:020000040000fa
:1011fc00444b98425cd010d9434b984266d031d9bd
:10120c00424b984270d003f58063984273d0a3f59b
:10121c000063984261d001207047a3f54063984267
:10122c0038d00dd93a4b98423bd003f580639842a5
:10123c0016d1384a136a43f010031362002070472a
:10124c00b0f1864f1fd0a3f58063984206d1314a86
:10125c00136a43f0020313620020704701207047a9
:10126c0001207047a3f50063984228d003f58063f2
:10127c00984206d1274a136a43f080031362002078
:10128c00704701207047234a136a43f0010313622d
:10129c00002070471f4a136a43f0040313620020b6
:1012ac0070471c4a136a43f008031362002070470e
:1012bc00184a136a43f02003136200207047154a42
:1012cc00136a43f04003136200207047114a136afb
:1012dc0043f480731362002070470e4a136a43f480
:1012ec0000731362002070470a4a136a43f4806348
:1012fc00136200207047074a136a43f400631362b9
:10130c0000207047001400430020004300280043d5
:08131c00000c00430008004032
:020000040000fa
:1013240030b4441e00224349d1f8885014f8013fd8
:1013340093402b43c1f888300132042af4d13d4b49
:10134400d3f88c1002790a43c3f88c20d3f88c208c
:10135400417942ea4102c3f88c20841d00221946d7
:10136400d1f8905014f8013b93402b43c1f89030ce
:101374000132042af4d12f4bd3f89410827a0a4311
:10138400c3f89420d3f89420c17a42ea4102c3f806
:10139400942000f10c040022194600bfd1f89850a3
:1013a40014f8013b93402b43c1f898300132042ace
:1013b400f4d1204bd3f89c10027c0a43c3f89c2040
:1013c400d3f89c20417c42ea4102c3f89c2000f1fe
:1013d40012040022194600bfd1f8a05014f8013bb2
:1013e40093402b43c1f8a0300132042af4d1114bad
:1013f400d3f8a410827d0a43c3f8a420d3f8a42010
:10140400c17d42ea4102c3f8a420d3f8ac100a4ad1
:101414000a43c3f8ac20d3f8b010084a0a43c3f80f
:10142400b020d3f8b410064a0a43c3f8b42000200d
:1014340030bc704700080042f78800807f88008035
:04144400887f00801d
:020000040000fa
:101448002de9f04383b004460e46174698469df8aa
:101458002890414a136843f0100313604ff4004189
:10146800002001f09ff84ff400414cf6012001f0f4
:1014780031f805460df106014cf6012001f0a2f8fd
:101488000543a64298bf45f00105bdf80600b0f532
:10149800004f18bf45f00105edb2002c39d0a6b2b7
:1014a80031464cf6022001f015f804460df106010c
:1014b8004cf6022001f086f8bdf8063004432c43b0
:1014c800b34218bf44f00104e4b227bbb8f1000fdf
:1014d8001bd0b9f1000f39d049ea082841464cf62b
:1014e800052000f0f7ff05460df106014cf6052032
:1014f80001f068f8bdf8069028430443c1450cbfc5
:10150800a04644f001085ffa88f4204603b0bde81d
:10151800f0833602c4e707eb87077f0007f0fe0772
:1015280039464cf6042000f0d5ff05460df10601ba
:101538004cf6042001f046f8bdf806302843044371
:10154800bb4218bf44f00104e4b2bfe74fea0828e1
:0c15580048f08008c2e700bf0008004215
:020000040000fa
:1015640070b483b03a4b5a6a01925b690093009b52
:1015740033f02b031abf009b03f0d4030023354a36
:101584001370334b59695a690a435a61019b13f02a
:10159400800f07d1019b13f0400f03d1019b13f47b
:1015a400006f20d02c4a13780133dbb213701e2b4a
:1015b4000cd02a4b1b781d2b45d0254b1a6842f4be
:1015c40000721a601a6842f480621a6023490a7829
:1015d4000132234b83fb020313441b11c3eb03139c
:1015e400a2eb43030b70019b13f0020f28d01d4e96
:1015f40031781d4d55f8313023f0010345f8313071
:1016040005ebc10300225a60184b1c780134a2f187
:10161400773282fb04c020440011c0eb0010a4eb1d
:1016240040001870013182fb01230b441b11c3ebf2
:101634000313a1eb4303337005ebc303044a936123
:1016440003b070bc70470a4a014bda61b5e700bfca
:1016540000080042cd6b0120ea6b0120ca6b012017
:1016640089888888cb6b012000000020cc6b012086
:04167400f000002062
:020000040000fa
:10167800384b00221a7403f50063374a9a621a46f7
:10168800536813f0100ffbd1344b4222c3f8842067
:101698001a4600bfd2f8843013f0400ffad0304b0e
:1016a80000229a6377225a631a46d36b13f0040f09
:1016b800fbd12b4b022283f830201a46d36b13f050
:1016c800020ffbd1264a136c03f00303032bfad154
:1016d800244b01225a711a46d37813f0010ffbd01c
:1016e8001e4b214a1a621a46536813f0040ffbd1a5
:1016f8001a4b1e4a5a621a46536813f0080ffbd158
:10170800164b4122c3f890201a4600bfd2f89030f9
:1017180013f0400ffad0114b4122c3f8a0201a460b
:10172800d2f8a03013f0400ffad00c4b4122c3f886
:1017380010211a46d2f8103113f0400ffad0094b95
:101748006ff07f421a6142f2ff725a6104221a62f4
:10175800704700bf0014004006013000001c004024
:1017680000100040000800400701010007010200c6
:020000040000fa
:101778003c4b93f84c2042f0010283f84c2093f83c
:101788004d2042f0010283f84d2093f84e2042f09c
:10179800010283f84e2093f84f2042f0010283f8ab
:1017a8004f2093f8512042f0010283f8512093f81a
:1017b800522042f0010283f8522093f8532042f05d
:1017c800010283f8532093f8542142f0010283f870
:1017d800542193f8562142f0010283f8562193f8d8
:1017e800572142f0010283f8572193f8362042f03e
:1017f8000b0283f8362093f8362042f0b00283f8c3
:10180800362093f8372042f00b0283f8372093f8fc
:10181800372042f0b00283f8372093f8382042f09e
:10182800b00283f8382093f8392042f00b0283f88d
:10183800392093f8392042f0b00283f8392093f820
:101848003a2142f00b0283f83a2193f83b2142f007
:101858000b0283f83b2193f83b2142f0b00283f856
:081868003b21704700800041a4
:020000040000fa
:1018700070b40401354d25442d7b04f1824404f5f8
:10188000204494f84e4014f0030f02d1edb2002d25
:1018900055d1040104f1824505f52045032685f85c
:1018a0004e602a4d254401262e73294d2c5b14f4dd
:1018b000806f19bfc91805eb0014254c04eb001408
:1018c00061600101224c615a11f4006f27d01a4463
:1018d00004eb00118a601e4902018c18895a9bb2e0
:1018e000c1f301210b419bb2638002f1824303f5f6
:1018f00020431a6c42f002021a641a6c12f4fe4f72
:101900001fd193f8463013f0400f1dd111490c69d7
:10191000012202fa00f323430b61104612e00d4945
:10192000498811f4404f04d1094901eb00118a6044
:10193000d1e71168064a02eb00129160cbe7002064
:1019400000e0012070bc70470120fbe7886b01209c
:08195000786b012000a00041aa
:020000040000fa
:10195800b1f5804f4cd2284b1b78002b4ad0274b2f
:101968001b78274a42f8330041f4004102ebc302d6
:1019780051601d2b22d023490a780132d2b20a7055
:101988001e2a2bd001331d4a13701f4a136843f4d3
:1019980000731360194b1b781bb9136843f48063f9
:1019a8001360194b5b6923f02903002b0cbf00203f
:1019b8000420114a1378013b1370704741f08041ad
:1019c8000f4ac2f8ec100f490a780132d2b20a70f5
:1019d8001e2a03d0094b00221a70d6e7094a0021b3
:1019e80011700133dbb2054a13701e2bcdd1f1e71c
:1019f8000120704702207047ea6b0120cf6b01205d
:0c1a0800f0000020ce6b0120000800421e
:020000040000fa
:101a140010b4294ad36823f4e0631b041b0c43f07d
:101a2400bf6343f40033d360bff35f8f62b6234bcd
:101a3400e02183f80b134ff40060186083f80c1353
:101a44004ff480541c6083f80d134ff400541c6051
:101a540083f81f134ff000441c6083f8461340249e
:101a64009c6083f8471380249c6083f848134ff4e8
:101a740080749c6083f849134ff4007199602021ad
:101a840083f86b13d860002183f854134ff480114a
:101a94009960536a43f480235362536943f01003fb
:101aa4005361536a43f400335362536a43f48033fb
:101ab40053625df8044b704700ed00e000e100e084
:020000040000fa
:101ac400f0b4c48b64baa4b2234b1b689c4204d008
:101ad400224b00221a70f0bc70470546204e06f1d6
:101ae4001807b446bce80f000fc79ce8030087e85a
:101af400030095f8222095f8233043ea022333802b
:101b040095f8242095f825301b0443ea026395f8e0
:101b14002720134395f8262043ea0223736095f89f
:101b2400282095f829301b0443ea026395f82b20fa
:101b3400134395f82a2043ea0223b3600134094b86
:101b4400a3fb0423db0bc3eb0343e41a024b1c602b
:101b5400024b01221a70bee7d46b0120d26b012024
:081b6400e86801200180008007
:020000040000fa
:101b6c0010b582b040f6f604a0421bd840f6f30440
:101b7c00a0422fd219280ed8182833d2102831d0d1
:101b8c00122822d1009313460a460146012000f088
:101b9c0099fa02b010bd872824d040f63404a04234
:101bac00f0d012e04cf60224a04208d8b0f54a4f0f
:101bbc0018d8a0f6f904a4b2022ce3d905e000f57c
:101bcc0057543c34a4b2012c0cd91a7842f00102bf
:101bdc001a70dee7009313460a460146032000f014
:101bec0071fad6e7009313460a4601461f2000f00f
:041bfc0069facee7cd
:020000040000fa
:101c00002de9f041adf5be6d0546884616461c46e9
:101c100040f2ea52002101a800f062fd270a47eadb
:101c20000427bfb208f1ff3001ab721e08f10501b5
:101c300010f8016f03f8016b12f8016f5e718842b2
:101c4000f6d1b4f5c06f05d948f6f7039c4211d11f
:101c50002c2400e074b1ddf80826013a0df11101e1
:101c6000002300bf12f8010f01f8010f01339bb2ee
:101c7000a342f7d3adf8107040f2ea5201a928460a
:101c800000f0defc28460df5be6dbde8f08100bf1a
:020000040000fa
:101c900010b582b000230193030103f1824303f5e1
:101ca000204393f84e30dbb20193019b13f0020ff7
:101cb0000dd0010101f1824202f52042022382f897
:101cc0004e30134b0b4400221a73012400e002240f
:101cd000019b13f0010f0cd0010101f1824202f5ca
:101ce0002042012382f84e30094b0b4400221a7324
:101cf0000224074b03eb00135b6833b1044a02eb89
:101d0000001399685b682046984702b010bd00bf79
:041d1000886b0120bb
:020000040000fa
:101d14001e4a137843f001031370536813f0010f44
:101d2400fbd11a490b7843f010030b709923cb6154
:101d340000220a6203230b634a630b61144b1a816a
:101d440001229a8210221a849a851a87a3f84420c1
:101d5400a3f85020a3f85c20a3f86820a3f874200b
:101d6400a3f88020a3f88c20a3f89820a3f8a4203b
:101d7400a3f8b020a3f8bc200b7843f002030b7047
:101d84000a46536813f0020ffbd170470028004045
:041d9400206a0120a0
:020000040000fa
:101d980008b5184b9847184b9847eff3108172b65f
:101da800164ad2f8883043f47003c2f88830bff37b
:101db8004f8fbff36f8f01b962b6114a936823f052
:101dc80001039360d36813f0010ffbd10c4b24225d
:101dd8005a6001229a6000f085fa0a4b23f07f03cb
:101de800064a9360084b9847084b9847084b984712
:101df800fef76afd5d2700005d27000000ed00e0aa
:101e08000060004100000000c51f00005d270000c1
:041e18005d27000042
:020000040000fa
:101e1c002de9f04184b007460e4615469846194800
:101e2c0000f07afa0446fff7a1fc00f03ffc9df8a5
:101e3c00343000939df830309df82c209df82810fc
:101e4c004046fff7fbfa0443e4b2384600f00ef9c3
:101e5c000443e4b2304600f0fff90443e4b22846f0
:101e6c00fff75afa0443e4b2074b93e803000290dd
:101e7c00adf80c1002a800f0b7fa2043c0b204b0c1
:0c1e8c00bde8f08100080042442700007f
:020000040000fa
:101e9800f8b584894ff288739c4209d115460c46df
:101ea80000f10e02837b13f00f0302d0082b04d03d
:101eb800f8bd104600f068fafae71046fff7fefd95
:101ec8000d4b1b7893b1dff834c00cf148060cf1c8
:101ed80030070fcf0fc697e8030086e80300ccf859
:101ee8003440ccf83850fef72bfbe1e760220021a4
:101ef800024800f0f1fbdbe7d26b0120e868012023
:020000040000fa
:101f0800144b01221a601a46d369002bfcd1114bdd
:101f18004ff480725a601a46d369002bfcd10d4bde
:101f2800ff22da600c4a1a601a46d369002bfcd1ea
:101f3800084b10225a831a46d369002bfcd1074b51
:101f4800002283f8212083f82020024b83229a75ef
:101f5800704700bf0008004316001000306b0120d6
:020000040000fa
:101f68006672616d652070726f63657373696e6701
:101f7800206f7574206f662073796e630d0a0000f8
:101f88000d0a427566666572206e6f74206176610f
:101f9800696c61626c6500000d0a5265636569765b
:101fa80065204f76657272756e0000000d0a485202
:0c1fb800455350204e4f54204f4b00006a
:020000040000fa
:101fc4000e4a38b5002313600d4a0e4c13600e4ab6
:101fd4000e4d13600e4a13600e4a13600e4a53628c
:101fe40013610123936000f0b9fb00f0b7fbac422e
:101ff40000d338bd54f8043b9847f8e7c46b01207c
:10200400ec6a012070020000e86a012074020000fa
:0c201400e06a0120e46a0120f06a01206b
:020000040000fa
:1020200010b4104a002111705160916011730e4c70
:102030000e4b5c630e489863586940f081305861dc
:102040000c48186440f20940208083f845100121b3
:102050001170032283f84d2040f602721a805df859
:10206000044b7047886b0120786b012000a0004171
:08207000986b0120000720001d
:020000040000fa
:1020780010b4124a136943f4c0131361044658b1eb
:102088000f4a104b03ebc00000211a60596002f59b
:10209800c06208338342f8d1601e0a4a52f83030d1
:1020a80043f0020342f83030044b9a611a6842f058
:1020b80004021a6000205df8044b704700080042d3
:0820c800e001002000000020ef
:020000040000fa
:1020d0002de9f0410f4690461d46069e00f01f0474
:1020e00021460d2000f062fa39460e2000f05efa1b
:1020f00044f480410d2000f059fa012d07d0022d43
:102100000bd0337843f001033370bde8f081b8f8a9
:1021100000100e2000f04afaf7e70e2000f0f2f966
:06212000a8f80000f1e741
:020000040000fa
:10212600f0b58fb004460d4616461f4628220021fc
:1021360004a800f0d2fa9df850308df80c30202318
:102146008df80d302323adf80e30002f14bf022377
:102156000023adf812309df854308df82d3003abc6
:10216600009348f6f703324629462046fff745fd19
:0621760020460fb0f0bd91
:020000040000fa
:10217c00134b01221a801a46136913f0010ffbd17d
:10218c000f4b48f280121a801a46136913f4004f51
:10219c00fbd10b4b4ff400721a621a46136913f001
:1021ac00200ffbd1064b00225a621a46136913f01a
:1021bc00400ffbd1024b4ff480725a81704700bf25
:0421cc0000240040ab
:020000040000fa
:1021d000104b00229a61da610f4b83221a765a68fb
:1021e00022f480225a601a46d369002bfcd161b1d7
:1021f000084b032283f8202041ea4001064b596234
:102200001a46d369002bfcd17047024b042283f895
:0c2210002020f1e7306b012000080043a3
:020000040000fa
:10221c00104b4ff40012c3f80021002283f8552113
:10222c00012183f85b1183f83a21202083f83d01ca
:10223c000320c3f89001052083f8c00183f8c10185
:10224c0083f8c81183f8c91183f8b021332283f8bd
:08225c00b4217047008000412d
:020000040000fa
:1022640010b4044650b10e4b03ebc00000214ff0f4
:10227400004219605a6008338342fad1631e084948
:1022840001ebc3035a6842f080425a60054bd9619e
:102294001a6842f008021a6000205df8044b704787
:0822a400f000002000080042d8
:020000040000fa
:1022ac0010b5054c227832b9044b13b10448aff386
:1022bc0000800123237010bd5c6b01200000000026
:1022cc000000000008b5034b1bb103490348aff3f2
:1022dc00008008bd00000000606b012000000000c1
:020000040000fa
:1022ec0070b50b480b4d4ff6ff76016821b943686a
:1022fc0013b900f02efa70bd83684268334000f1c8
:10230c000c0455f823302046984704eb8000ece78a
:08231c00440f0000cc26000074
:020000040000fa
:1023240008b5b0f1824f0ad3b0f1844f0ad3b0f1ab
:10233400864f0ad3b0f1884f0ad3012008bdfef7b7
:1023440077fcfbe7fef73cfdf8e7fef7b1fef5e7a7
:06235400fef752fff2e764
:020000040000fa
:02235a007047ca
:020000040000fa
:10235c000a4b0b4a1a604cf215129a814ff48032d8
:10236c005a601a46d369002bfcd1044a136843f017
:10237c0002031360d369002bfcd17047003400407a
:04238c0004011040f8
:020000040000fa
:1023900008b5c38b5bba0a4a1268002a0bdb9bb2f2
:1023a0009a420bd09b1a002bb8bf5b420a2b05dd6b
:1023b00000f060f902e09bb2014a136008bd00bf63
:0423c000d46b0120b9
:020000040000fa
:1023c40030b400eb4004094b03eb84031b899bb23c
:1023d400834201d030bc7047044b44002518ad0043
:1023e4005951204403eb80035a60f3e7206a01202b
:020000040000fa
:1023f400c27883781b0443ea026302781343427869
:1024040043ea0223054ac2f888304179037943ea52
:102414000123c2f88c300020704700bf000800423e
:020000040000fa
:1024240030b585b004460d46084b93e8030002908e
:10243400adf80c1001921223009300232a4602a93e
:102444002046fff76efe204605b030bd3027000061
:020000040000fa
:1024540053b94ab9002908bf00281cbf4ff0ff3107
:102464004ff0ff3000f072b9adf1080c6de904ce05
:10247400fdf70affddf804e0dde9022304b070474c
:020000040000fa
:1024840008b5084b9a8992b207494a604cf2ff3268
:102494009a819b890b6823b10b46486889681b683d
:0c24a400984708bd00240040a86b0120f0
:020000040000fa
:1024b00008b500f031f9fff7b1fefff7ddf8fff7df
:1024c0004dfffff74afffff71ffdfff7a9fdfff7dd
:0c24d00021fcfff753fefff79dfa08bd4a
:020000040000fa
:1024dc0000b585b0adf8061000238df80f300df166
:1024ec000f0301220df10601fff73afb9df80f00d7
:0624fc0005b05df804fbd1
:020000040000fa
:02250200fee7f2
:020000040000fa
:10250400800440f0c04040f40030054b58631a4644
:10251400936813f0040ffbd0014b586b80b27047e3
:042524000008004269
:020000040000fa
:1025280030b40488426880680549a2fb012301fb96
:102538000433141843f100052046294630bc70477f
:0425480000ca9a3bf0
:020000040000fa
:10254c0008b5054b01225a61044b1b681bb1034ba8
:10255c0058681b68984708bd00280040206a012075
:020000040000fa
:10256c0008b5054b02225a61044bdb681bb1034bc7
:10257c001869db68984708bd00280040206a0120d4
:020000040000fa
:10258c00054bd3f8d401d3f8d02120f040400021e2
:10259c00024be3fb020170470008004200ca9a3b61
:020000040000fa
:1025ac0041ea804141f0a04141f40031034b5963b1
:1025bc001a46936813f0040ffbd0704700080042d2
:020000040000fa
:1025cc0000b583b000238df807300df1070302220c
:0e25dc00fff7c6fa9df8070003b05df804fb98
:020000040000fa
:1025ea0010b50023934206d113f0030018bf01204f
:0e25fa0000eb930010bdc45ccc540133f2e73b
:020000040000fa
:10260800044bd3f8a03113f0010f02d0024b012282
:0c2618001a70704700800041c96b01205f
:020000040000fa
:10262400044bd3f8a03113f0020f02d0024b012265
:0c2634001a70704700800041e96b012023
:020000040000fa
:102640005ab110b40a44431e11f8014b03f8014f6c
:0c2650009142f9d15df8044b70477047cf
:020000040000fa
:10265c000004251ca0020004251ca002ffffffffa4
:08266c00ffffffffffffffff6e
:020000040000fa
:10267400034b4ff0ff321a60024b00221a7070476e
:08268400d46b0120d26b012090
:020000040000fa
:10268c0003783bb1034600bf13f8012f002afbd19e
:08269c00181a70471846704738
:020000040000fa
:1026a400012800d07047024b01221a70fae700bfdc
:0426b400e86b0120ae
:020000040000fa
:1026b800034b002018605a6842f000725a60704755
:0426c80000080042c4
:020000040000fa
:1026cc00f5260000eb2500004d2700004d270000eb
:0426dc004d27000086
:020000040000fa
:1026e00032b1c9b20244034603f8011b9342fbd145
:0426f000704700bf70
:020000040000fa
:1026f4000a440023914201d10020704701f8013bb4
:02270400f8e7f4
:020000040000fa
:02270600fee7ec
:020000040000fa
:10270800024b03eb0010416082607047886b012028
:020000040000fa
:10271800024b40f204521a80704700bf004000414b
:020000040000fa
:10272800011b1900000000000180c200000e00bf5c
:020000040000fa
:0a27380008b50020fff7a8fa08bd5d
:020000040000fa
:02274200fee7b0
:020000040000fa
:082744000004251ca00200bfe7
:020000040000fa
:04274c0000207047b2
:020000040000fa
:04275000704700bf0f
:020000040000fa
:02275400fee79e
:020000040000fa
:02275600fee79c
:020000040000fa
:02275800fee79a
:020000040000fa
:02275a00fee798
:020000040000fa
:02275c007047c4
:020000040000fa
:02275e007047c2
:020000040000fa
:022760007047c0
:020000040000fa
:0200000400807a
:044000003912003c35
:020000040000fa
:0200000400807a
:044004008000a82a66
:020000040000fa
:0200000400807a
:04400800ffffffffb8
:00000001FF
